{
	"_format": "hh-sol-artifact-1",
	"contractName": "ADNFT",
	"sourceName": "contracts/ADNFT.sol",
	"abi": [
		{
			"inputs": [],
			"stateMutability": "nonpayable",
			"type": "constructor"
		},
		{
			"anonymous": false,
			"inputs": [
				{
					"indexed": true,
					"internalType": "address",
					"name": "owner",
					"type": "address"
				},
				{
					"indexed": true,
					"internalType": "address",
					"name": "approved",
					"type": "address"
				},
				{
					"indexed": true,
					"internalType": "uint256",
					"name": "tokenId",
					"type": "uint256"
				}
			],
			"name": "Approval",
			"type": "event"
		},
		{
			"anonymous": false,
			"inputs": [
				{
					"indexed": true,
					"internalType": "address",
					"name": "owner",
					"type": "address"
				},
				{
					"indexed": true,
					"internalType": "address",
					"name": "operator",
					"type": "address"
				},
				{
					"indexed": false,
					"internalType": "bool",
					"name": "approved",
					"type": "bool"
				}
			],
			"name": "ApprovalForAll",
			"type": "event"
		},
		{
			"anonymous": false,
			"inputs": [
				{
					"indexed": true,
					"internalType": "address",
					"name": "from",
					"type": "address"
				},
				{
					"indexed": true,
					"internalType": "address",
					"name": "to",
					"type": "address"
				},
				{
					"indexed": true,
					"internalType": "uint256",
					"name": "tokenId",
					"type": "uint256"
				}
			],
			"name": "Transfer",
			"type": "event"
		},
		{
			"inputs": [
				{
					"internalType": "address",
					"name": "to",
					"type": "address"
				},
				{
					"internalType": "uint256",
					"name": "tokenId",
					"type": "uint256"
				}
			],
			"name": "approve",
			"outputs": [],
			"stateMutability": "nonpayable",
			"type": "function"
		},
		{
			"inputs": [
				{
					"internalType": "address",
					"name": "owner",
					"type": "address"
				}
			],
			"name": "balanceOf",
			"outputs": [
				{
					"internalType": "uint256",
					"name": "",
					"type": "uint256"
				}
			],
			"stateMutability": "view",
			"type": "function"
		},
		{
			"inputs": [
				{
					"internalType": "uint256",
					"name": "tokenId",
					"type": "uint256"
				}
			],
			"name": "getApproved",
			"outputs": [
				{
					"internalType": "address",
					"name": "",
					"type": "address"
				}
			],
			"stateMutability": "view",
			"type": "function"
		},
		{
			"inputs": [
				{
					"internalType": "uint256",
					"name": "tokenId",
					"type": "uint256"
				},
				{
					"internalType": "string",
					"name": "name",
					"type": "string"
				},
				{
					"internalType": "string",
					"name": "description",
					"type": "string"
				},
				{
					"internalType": "string",
					"name": "ipfsLink",
					"type": "string"
				}
			],
			"name": "getTokenURI",
			"outputs": [
				{
					"internalType": "string",
					"name": "",
					"type": "string"
				}
			],
			"stateMutability": "pure",
			"type": "function"
		},
		{
			"inputs": [
				{
					"internalType": "address",
					"name": "owner",
					"type": "address"
				},
				{
					"internalType": "address",
					"name": "operator",
					"type": "address"
				}
			],
			"name": "isApprovedForAll",
			"outputs": [
				{
					"internalType": "bool",
					"name": "",
					"type": "bool"
				}
			],
			"stateMutability": "view",
			"type": "function"
		},
		{
			"inputs": [
				{
					"internalType": "string",
					"name": "_name",
					"type": "string"
				},
				{
					"internalType": "string",
					"name": "_description",
					"type": "string"
				},
				{
					"internalType": "string",
					"name": "_ipfsLink",
					"type": "string"
				}
			],
			"name": "mint",
			"outputs": [
				{
					"internalType": "uint256",
					"name": "",
					"type": "uint256"
				}
			],
			"stateMutability": "nonpayable",
			"type": "function"
		},
		{
			"inputs": [],
			"name": "name",
			"outputs": [
				{
					"internalType": "string",
					"name": "",
					"type": "string"
				}
			],
			"stateMutability": "view",
			"type": "function"
		},
		{
			"inputs": [
				{
					"internalType": "uint256",
					"name": "tokenId",
					"type": "uint256"
				}
			],
			"name": "ownerOf",
			"outputs": [
				{
					"internalType": "address",
					"name": "",
					"type": "address"
				}
			],
			"stateMutability": "view",
			"type": "function"
		},
		{
			"inputs": [
				{
					"internalType": "address",
					"name": "from",
					"type": "address"
				},
				{
					"internalType": "address",
					"name": "to",
					"type": "address"
				},
				{
					"internalType": "uint256",
					"name": "tokenId",
					"type": "uint256"
				}
			],
			"name": "safeTransferFrom",
			"outputs": [],
			"stateMutability": "nonpayable",
			"type": "function"
		},
		{
			"inputs": [
				{
					"internalType": "address",
					"name": "from",
					"type": "address"
				},
				{
					"internalType": "address",
					"name": "to",
					"type": "address"
				},
				{
					"internalType": "uint256",
					"name": "tokenId",
					"type": "uint256"
				},
				{
					"internalType": "bytes",
					"name": "data",
					"type": "bytes"
				}
			],
			"name": "safeTransferFrom",
			"outputs": [],
			"stateMutability": "nonpayable",
			"type": "function"
		},
		{
			"inputs": [
				{
					"internalType": "address",
					"name": "operator",
					"type": "address"
				},
				{
					"internalType": "bool",
					"name": "approved",
					"type": "bool"
				}
			],
			"name": "setApprovalForAll",
			"outputs": [],
			"stateMutability": "nonpayable",
			"type": "function"
		},
		{
			"inputs": [
				{
					"internalType": "bytes4",
					"name": "interfaceId",
					"type": "bytes4"
				}
			],
			"name": "supportsInterface",
			"outputs": [
				{
					"internalType": "bool",
					"name": "",
					"type": "bool"
				}
			],
			"stateMutability": "view",
			"type": "function"
		},
		{
			"inputs": [],
			"name": "symbol",
			"outputs": [
				{
					"internalType": "string",
					"name": "",
					"type": "string"
				}
			],
			"stateMutability": "view",
			"type": "function"
		},
		{
			"inputs": [],
			"name": "tokenIds",
			"outputs": [
				{
					"internalType": "uint256",
					"name": "_value",
					"type": "uint256"
				}
			],
			"stateMutability": "view",
			"type": "function"
		},
		{
			"inputs": [
				{
					"internalType": "uint256",
					"name": "tokenId",
					"type": "uint256"
				}
			],
			"name": "tokenURI",
			"outputs": [
				{
					"internalType": "string",
					"name": "",
					"type": "string"
				}
			],
			"stateMutability": "view",
			"type": "function"
		},
		{
			"inputs": [
				{
					"internalType": "address",
					"name": "from",
					"type": "address"
				},
				{
					"internalType": "address",
					"name": "to",
					"type": "address"
				},
				{
					"internalType": "uint256",
					"name": "tokenId",
					"type": "uint256"
				}
			],
			"name": "transferFrom",
			"outputs": [],
			"stateMutability": "nonpayable",
			"type": "function"
		}
	],
	"bytecode": "0x60806040523480156200001157600080fd5b506040518060400160405280600681526020017f4164204e465400000000000000000000000000000000000000000000000000008152506040518060400160405280600581526020017f41444e4654000000000000000000000000000000000000000000000000000000815250816000908051906020019062000096929190620000b8565b508060019080519060200190620000af929190620000b8565b505050620001cd565b828054620000c69062000168565b90600052602060002090601f016020900481019282620000ea576000855562000136565b82601f106200010557805160ff191683800117855562000136565b8280016001018555821562000136579182015b828111156200013557825182559160200191906001019062000118565b5b50905062000145919062000149565b5090565b5b80821115620001645760008160009055506001016200014a565b5090565b600060028204905060018216806200018157607f821691505b602082108114156200019857620001976200019e565b5b50919050565b7f4e487b7100000000000000000000000000000000000000000000000000000000600052602260045260246000fd5b61302880620001dd6000396000f3fe608060405234801561001057600080fd5b50600436106101005760003560e01c806370a0823111610097578063b88d4fde11610066578063b88d4fde146102bf578063c87b56dd146102db578063d645ddf61461030b578063e985e9c51461033b57610100565b806370a0823114610237578063714cff561461026757806395d89b4114610285578063a22cb465146102a357610100565b806323b872dd116100d357806323b872dd1461019f5780632bd8df05146101bb57806342842e0e146101eb5780636352211e1461020757610100565b806301ffc9a71461010557806306fdde0314610135578063081812fc14610153578063095ea7b314610183575b600080fd5b61011f600480360381019061011a9190611e1e565b61036b565b60405161012c91906124b5565b60405180910390f35b61013d61044d565b60405161014a91906124d0565b60405180910390f35b61016d60048036038101906101689190611f07565b6104df565b60405161017a919061244e565b60405180910390f35b61019d60048036038101906101989190611de2565b610525565b005b6101b960048036038101906101b49190611cdc565b61063d565b005b6101d560048036038101906101d09190611f30565b61069d565b6040516101e291906124d0565b60405180910390f35b61020560048036038101906102009190611cdc565b610704565b005b610221600480360381019061021c9190611f07565b610724565b60405161022e919061244e565b60405180910390f35b610251600480360381019061024c9190611c77565b6107d6565b60405161025e9190612672565b60405180910390f35b61026f61088e565b60405161027c9190612672565b60405180910390f35b61028d61089a565b60405161029a91906124d0565b60405180910390f35b6102bd60048036038101906102b89190611da6565b61092c565b005b6102d960048036038101906102d49190611d2b565b610942565b005b6102f560048036038101906102f09190611f07565b6109a4565b60405161030291906124d0565b60405180910390f35b61032560048036038101906103209190611e70565b610ab7565b6040516103329190612672565b60405180910390f35b61035560048036038101906103509190611ca0565b610afb565b60405161036291906124b5565b60405180910390f35b60007f80ac58cd000000000000000000000000000000000000000000000000000000007bffffffffffffffffffffffffffffffffffffffffffffffffffffffff1916827bffffffffffffffffffffffffffffffffffffffffffffffffffffffff1916148061043657507f5b5e139f000000000000000000000000000000000000000000000000000000007bffffffffffffffffffffffffffffffffffffffffffffffffffffffff1916827bffffffffffffffffffffffffffffffffffffffffffffffffffffffff1916145b80610446575061044582610b8f565b5b9050919050565b60606000805461045c90612922565b80601f016020809104026020016040519081016040528092919081815260200182805461048890612922565b80156104d55780601f106104aa576101008083540402835291602001916104d5565b820191906000526020600020905b8154815290600101906020018083116104b857829003601f168201915b5050505050905090565b60006104ea82610bf9565b6004600083815260200190815260200160002060009054906101000a900473ffffffffffffffffffffffffffffffffffffffff169050919050565b600061053082610724565b90508073ffffffffffffffffffffffffffffffffffffffff168373ffffffffffffffffffffffffffffffffffffffff1614156105a1576040517f08c379a000000000000000000000000000000000000000000000000000000000815260040161059890612632565b60405180910390fd5b8073ffffffffffffffffffffffffffffffffffffffff166105c0610c44565b73ffffffffffffffffffffffffffffffffffffffff1614806105ef57506105ee816105e9610c44565b610afb565b5b61062e576040517f08c379a0000000000000000000000000000000000000000000000000000000008152600401610625906125d2565b60405180910390fd5b6106388383610c4c565b505050565b61064e610648610c44565b82610d05565b61068d576040517f08c379a000000000000000000000000000000000000000000000000000000000815260040161068490612652565b60405180910390fd5b610698838383610d9a565b505050565b606060008484846106ad89611001565b6040516020016106c0949392919061238b565b60405160208183030381529060405290506106da816111ae565b6040516020016106ea919061242c565b604051602081830303815290604052915050949350505050565b61071f83838360405180602001604052806000815250610942565b505050565b6000806002600084815260200190815260200160002060009054906101000a900473ffffffffffffffffffffffffffffffffffffffff169050600073ffffffffffffffffffffffffffffffffffffffff168173ffffffffffffffffffffffffffffffffffffffff1614156107cd576040517f08c379a00000000000000000000000000000000000000000000000000000000081526004016107c490612612565b60405180910390fd5b80915050919050565b60008073ffffffffffffffffffffffffffffffffffffffff168273ffffffffffffffffffffffffffffffffffffffff161415610847576040517f08c379a000000000000000000000000000000000000000000000000000000000815260040161083e90612592565b60405180910390fd5b600360008373ffffffffffffffffffffffffffffffffffffffff1673ffffffffffffffffffffffffffffffffffffffff168152602001908152602001600020549050919050565b60078060000154905081565b6060600180546108a990612922565b80601f01602080910402602001604051908101604052809291908181526020018280546108d590612922565b80156109225780601f106108f757610100808354040283529160200191610922565b820191906000526020600020905b81548152906001019060200180831161090557829003601f168201915b5050505050905090565b61093e610937610c44565b8383611338565b5050565b61095361094d610c44565b83610d05565b610992576040517f08c379a000000000000000000000000000000000000000000000000000000000815260040161098990612652565b60405180910390fd5b61099e848484846114a5565b50505050565b60606109af82610bf9565b60006006600084815260200190815260200160002080546109cf90612922565b80601f01602080910402602001604051908101604052809291908181526020018280546109fb90612922565b8015610a485780601f10610a1d57610100808354040283529160200191610a48565b820191906000526020600020905b815481529060010190602001808311610a2b57829003601f168201915b505050505090506000610a59611501565b9050600081511415610a6f578192505050610ab2565b600082511115610aa4578082604051602001610a8c929190612367565b60405160208183030381529060405292505050610ab2565b610aad84611518565b925050505b919050565b6000610ac36007611580565b6000610acf6007611596565b9050610adb33826115a4565b610af081610aeb8388888861069d565b6115c2565b809150509392505050565b6000600560008473ffffffffffffffffffffffffffffffffffffffff1673ffffffffffffffffffffffffffffffffffffffff16815260200190815260200160002060008373ffffffffffffffffffffffffffffffffffffffff1673ffffffffffffffffffffffffffffffffffffffff16815260200190815260200160002060009054906101000a900460ff16905092915050565b60007f01ffc9a7000000000000000000000000000000000000000000000000000000007bffffffffffffffffffffffffffffffffffffffffffffffffffffffff1916827bffffffffffffffffffffffffffffffffffffffffffffffffffffffff1916149050919050565b610c0281611636565b610c41576040517f08c379a0000000000000000000000000000000000000000000000000000000008152600401610c3890612612565b60405180910390fd5b50565b600033905090565b816004600083815260200190815260200160002060006101000a81548173ffffffffffffffffffffffffffffffffffffffff021916908373ffffffffffffffffffffffffffffffffffffffff160217905550808273ffffffffffffffffffffffffffffffffffffffff16610cbf83610724565b73ffffffffffffffffffffffffffffffffffffffff167f8c5be1e5ebec7d5bd14f71427d1e84f3dd0314c0f7b2291e5b200ac8c7c3b92560405160405180910390a45050565b600080610d1183610724565b90508073ffffffffffffffffffffffffffffffffffffffff168473ffffffffffffffffffffffffffffffffffffffff161480610d535750610d528185610afb565b5b80610d9157508373ffffffffffffffffffffffffffffffffffffffff16610d79846104df565b73ffffffffffffffffffffffffffffffffffffffff16145b91505092915050565b8273ffffffffffffffffffffffffffffffffffffffff16610dba82610724565b73ffffffffffffffffffffffffffffffffffffffff1614610e10576040517f08c379a0000000000000000000000000000000000000000000000000000000008152600401610e0790612512565b60405180910390fd5b600073ffffffffffffffffffffffffffffffffffffffff168273ffffffffffffffffffffffffffffffffffffffff161415610e80576040517f08c379a0000000000000000000000000000000000000000000000000000000008152600401610e7790612552565b60405180910390fd5b610e8b8383836116a2565b610e96600082610c4c565b6001600360008573ffffffffffffffffffffffffffffffffffffffff1673ffffffffffffffffffffffffffffffffffffffff1681526020019081526020016000206000828254610ee69190612838565b925050819055506001600360008473ffffffffffffffffffffffffffffffffffffffff1673ffffffffffffffffffffffffffffffffffffffff1681526020019081526020016000206000828254610f3d9190612757565b92505081905550816002600083815260200190815260200160002060006101000a81548173ffffffffffffffffffffffffffffffffffffffff021916908373ffffffffffffffffffffffffffffffffffffffff160217905550808273ffffffffffffffffffffffffffffffffffffffff168473ffffffffffffffffffffffffffffffffffffffff167fddf252ad1be2c89b69c2b068fc378daa952ba7f163c4a11628f55a4df523b3ef60405160405180910390a4610ffc8383836116a7565b505050565b60606000821415611049576040518060400160405280600181526020017f300000000000000000000000000000000000000000000000000000000000000081525090506111a9565b600082905060005b6000821461107b57808061106490612985565b915050600a8261107491906127ad565b9150611051565b60008167ffffffffffffffff8111156110bd577f4e487b7100000000000000000000000000000000000000000000000000000000600052604160045260246000fd5b6040519080825280601f01601f1916602001820160405280156110ef5781602001600182028036833780820191505090505b5090505b600085146111a2576001826111089190612838565b9150600a8561111791906129ce565b60306111239190612757565b60f81b81838151811061115f577f4e487b7100000000000000000000000000000000000000000000000000000000600052603260045260246000fd5b60200101907effffffffffffffffffffffffffffffffffffffffffffffffffffffffffffff1916908160001a905350600a8561119b91906127ad565b94506110f3565b8093505050505b919050565b60606000825114156111d157604051806020016040528060008152509050611333565b6000604051806060016040528060408152602001612fb360409139905060006003600285516112009190612757565b61120a91906127ad565b600461121691906127de565b67ffffffffffffffff811115611255577f4e487b7100000000000000000000000000000000000000000000000000000000600052604160045260246000fd5b6040519080825280601f01601f1916602001820160405280156112875781602001600182028036833780820191505090505b509050600182016020820185865187015b808210156112f3576003820191508151603f8160121c168501518453600184019350603f81600c1c168501518453600184019350603f8160061c168501518453600184019350603f8116850151845360018401935050611298565b505060038651066001811461130f57600281146113225761132a565b603d6001830353603d600283035361132a565b603d60018303535b50505080925050505b919050565b8173ffffffffffffffffffffffffffffffffffffffff168373ffffffffffffffffffffffffffffffffffffffff1614156113a7576040517f08c379a000000000000000000000000000000000000000000000000000000000815260040161139e90612572565b60405180910390fd5b80600560008573ffffffffffffffffffffffffffffffffffffffff1673ffffffffffffffffffffffffffffffffffffffff16815260200190815260200160002060008473ffffffffffffffffffffffffffffffffffffffff1673ffffffffffffffffffffffffffffffffffffffff16815260200190815260200160002060006101000a81548160ff0219169083151502179055508173ffffffffffffffffffffffffffffffffffffffff168373ffffffffffffffffffffffffffffffffffffffff167f17307eab39ab6107e8899845ad3d59bd9653f200f220920489ca2b5937696c318360405161149891906124b5565b60405180910390a3505050565b6114b0848484610d9a565b6114bc848484846116ac565b6114fb576040517f08c379a00000000000000000000000000000000000000000000000000000000081526004016114f2906124f2565b60405180910390fd5b50505050565b606060405180602001604052806000815250905090565b606061152382610bf9565b600061152d611501565b9050600081511161154d5760405180602001604052806000815250611578565b8061155784611001565b604051602001611568929190612367565b6040516020818303038152906040525b915050919050565b6001816000016000828254019250508190555050565b600081600001549050919050565b6115be828260405180602001604052806000815250611843565b5050565b6115cb82611636565b61160a576040517f08c379a0000000000000000000000000000000000000000000000000000000008152600401611601906125b2565b60405180910390fd5b80600660008481526020019081526020016000209080519060200190611631929190611a9b565b505050565b60008073ffffffffffffffffffffffffffffffffffffffff166002600084815260200190815260200160002060009054906101000a900473ffffffffffffffffffffffffffffffffffffffff1673ffffffffffffffffffffffffffffffffffffffff1614159050919050565b505050565b505050565b60006116cd8473ffffffffffffffffffffffffffffffffffffffff1661189e565b15611836578373ffffffffffffffffffffffffffffffffffffffff1663150b7a026116f6610c44565b8786866040518563ffffffff1660e01b81526004016117189493929190612469565b602060405180830381600087803b15801561173257600080fd5b505af192505050801561176357506040513d601f19601f820116820180604052508101906117609190611e47565b60015b6117e6573d8060008114611793576040519150601f19603f3d011682016040523d82523d6000602084013e611798565b606091505b506000815114156117de576040517f08c379a00000000000000000000000000000000000000000000000000000000081526004016117d5906124f2565b60405180910390fd5b805181602001fd5b63150b7a0260e01b7bffffffffffffffffffffffffffffffffffffffffffffffffffffffff1916817bffffffffffffffffffffffffffffffffffffffffffffffffffffffff19161491505061183b565b600190505b949350505050565b61184d83836118c1565b61185a60008484846116ac565b611899576040517f08c379a0000000000000000000000000000000000000000000000000000000008152600401611890906124f2565b60405180910390fd5b505050565b6000808273ffffffffffffffffffffffffffffffffffffffff163b119050919050565b600073ffffffffffffffffffffffffffffffffffffffff168273ffffffffffffffffffffffffffffffffffffffff161415611931576040517f08c379a0000000000000000000000000000000000000000000000000000000008152600401611928906125f2565b60405180910390fd5b61193a81611636565b1561197a576040517f08c379a000000000000000000000000000000000000000000000000000000000815260040161197190612532565b60405180910390fd5b611986600083836116a2565b6001600360008473ffffffffffffffffffffffffffffffffffffffff1673ffffffffffffffffffffffffffffffffffffffff16815260200190815260200160002060008282546119d69190612757565b92505081905550816002600083815260200190815260200160002060006101000a81548173ffffffffffffffffffffffffffffffffffffffff021916908373ffffffffffffffffffffffffffffffffffffffff160217905550808273ffffffffffffffffffffffffffffffffffffffff16600073ffffffffffffffffffffffffffffffffffffffff167fddf252ad1be2c89b69c2b068fc378daa952ba7f163c4a11628f55a4df523b3ef60405160405180910390a4611a97600083836116a7565b5050565b828054611aa790612922565b90600052602060002090601f016020900481019282611ac95760008555611b10565b82601f10611ae257805160ff1916838001178555611b10565b82800160010185558215611b10579182015b82811115611b0f578251825591602001919060010190611af4565b5b509050611b1d9190611b21565b5090565b5b80821115611b3a576000816000905550600101611b22565b5090565b6000611b51611b4c846126b2565b61268d565b905082815260208101848484011115611b6957600080fd5b611b748482856128e0565b509392505050565b6000611b8f611b8a846126e3565b61268d565b905082815260208101848484011115611ba757600080fd5b611bb28482856128e0565b509392505050565b600081359050611bc981612f56565b92915050565b600081359050611bde81612f6d565b92915050565b600081359050611bf381612f84565b92915050565b600081519050611c0881612f84565b92915050565b600082601f830112611c1f57600080fd5b8135611c2f848260208601611b3e565b91505092915050565b600082601f830112611c4957600080fd5b8135611c59848260208601611b7c565b91505092915050565b600081359050611c7181612f9b565b92915050565b600060208284031215611c8957600080fd5b6000611c9784828501611bba565b91505092915050565b60008060408385031215611cb357600080fd5b6000611cc185828601611bba565b9250506020611cd285828601611bba565b9150509250929050565b600080600060608486031215611cf157600080fd5b6000611cff86828701611bba565b9350506020611d1086828701611bba565b9250506040611d2186828701611c62565b9150509250925092565b60008060008060808587031215611d4157600080fd5b6000611d4f87828801611bba565b9450506020611d6087828801611bba565b9350506040611d7187828801611c62565b925050606085013567ffffffffffffffff811115611d8e57600080fd5b611d9a87828801611c0e565b91505092959194509250565b60008060408385031215611db957600080fd5b6000611dc785828601611bba565b9250506020611dd885828601611bcf565b9150509250929050565b60008060408385031215611df557600080fd5b6000611e0385828601611bba565b9250506020611e1485828601611c62565b9150509250929050565b600060208284031215611e3057600080fd5b6000611e3e84828501611be4565b91505092915050565b600060208284031215611e5957600080fd5b6000611e6784828501611bf9565b91505092915050565b600080600060608486031215611e8557600080fd5b600084013567ffffffffffffffff811115611e9f57600080fd5b611eab86828701611c38565b935050602084013567ffffffffffffffff811115611ec857600080fd5b611ed486828701611c38565b925050604084013567ffffffffffffffff811115611ef157600080fd5b611efd86828701611c38565b9150509250925092565b600060208284031215611f1957600080fd5b6000611f2784828501611c62565b91505092915050565b60008060008060808587031215611f4657600080fd5b6000611f5487828801611c62565b945050602085013567ffffffffffffffff811115611f7157600080fd5b611f7d87828801611c38565b935050604085013567ffffffffffffffff811115611f9a57600080fd5b611fa687828801611c38565b925050606085013567ffffffffffffffff811115611fc357600080fd5b611fcf87828801611c38565b91505092959194509250565b611fe48161286c565b82525050565b611ff38161287e565b82525050565b600061200482612714565b61200e818561272a565b935061201e8185602086016128ef565b61202781612abb565b840191505092915050565b600061203d8261271f565b612047818561273b565b93506120578185602086016128ef565b61206081612abb565b840191505092915050565b60006120768261271f565b612080818561274c565b93506120908185602086016128ef565b80840191505092915050565b60006120a960328361273b565b91506120b482612acc565b604082019050919050565b60006120cc60028361274c565b91506120d782612b1b565b600282019050919050565b60006120ef60258361273b565b91506120fa82612b44565b604082019050919050565b6000612112601c8361273b565b915061211d82612b93565b602082019050919050565b600061213560248361273b565b915061214082612bbc565b604082019050919050565b600061215860198361273b565b915061216382612c0b565b602082019050919050565b600061217b60108361274c565b915061218682612c34565b601082019050919050565b600061219e60298361273b565b91506121a982612c5d565b604082019050919050565b60006121c1602e8361273b565b91506121cc82612cac565b604082019050919050565b60006121e460308361274c565b91506121ef82612cfb565b603082019050919050565b600061220760028361274c565b915061221282612d4a565b600282019050919050565b600061222a603e8361273b565b915061223582612d73565b604082019050919050565b600061224d60208361273b565b915061225882612dc2565b602082019050919050565b600061227060098361274c565b915061227b82612deb565b600982019050919050565b600061229360018361274c565b915061229e82612e14565b600182019050919050565b60006122b660188361273b565b91506122c182612e3d565b602082019050919050565b60006122d960218361273b565b91506122e482612e66565b604082019050919050565b60006122fc601d8361274c565b915061230782612eb5565b601d82019050919050565b600061231f600a8361274c565b915061232a82612ede565b600a82019050919050565b6000612342602e8361273b565b915061234d82612f07565b604082019050919050565b612361816128d6565b82525050565b6000612373828561206b565b915061237f828461206b565b91508190509392505050565b600061239682612286565b91506123a182612263565b91506123ad828761206b565b91506123b8826120bf565b91506123c38261216e565b91506123cf828661206b565b91506123da826120bf565b91506123e582612312565b91506123f1828561206b565b91506123fc826120bf565b9150612407826121d7565b9150612413828461206b565b915061241e826121fa565b915081905095945050505050565b6000612437826122ef565b9150612443828461206b565b915081905092915050565b60006020820190506124636000830184611fdb565b92915050565b600060808201905061247e6000830187611fdb565b61248b6020830186611fdb565b6124986040830185612358565b81810360608301526124aa8184611ff9565b905095945050505050565b60006020820190506124ca6000830184611fea565b92915050565b600060208201905081810360008301526124ea8184612032565b905092915050565b6000602082019050818103600083015261250b8161209c565b9050919050565b6000602082019050818103600083015261252b816120e2565b9050919050565b6000602082019050818103600083015261254b81612105565b9050919050565b6000602082019050818103600083015261256b81612128565b9050919050565b6000602082019050818103600083015261258b8161214b565b9050919050565b600060208201905081810360008301526125ab81612191565b9050919050565b600060208201905081810360008301526125cb816121b4565b9050919050565b600060208201905081810360008301526125eb8161221d565b9050919050565b6000602082019050818103600083015261260b81612240565b9050919050565b6000602082019050818103600083015261262b816122a9565b9050919050565b6000602082019050818103600083015261264b816122cc565b9050919050565b6000602082019050818103600083015261266b81612335565b9050919050565b60006020820190506126876000830184612358565b92915050565b60006126976126a8565b90506126a38282612954565b919050565b6000604051905090565b600067ffffffffffffffff8211156126cd576126cc612a8c565b5b6126d682612abb565b9050602081019050919050565b600067ffffffffffffffff8211156126fe576126fd612a8c565b5b61270782612abb565b9050602081019050919050565b600081519050919050565b600081519050919050565b600082825260208201905092915050565b600082825260208201905092915050565b600081905092915050565b6000612762826128d6565b915061276d836128d6565b9250827fffffffffffffffffffffffffffffffffffffffffffffffffffffffffffffffff038211156127a2576127a16129ff565b5b828201905092915050565b60006127b8826128d6565b91506127c3836128d6565b9250826127d3576127d2612a2e565b5b828204905092915050565b60006127e9826128d6565b91506127f4836128d6565b9250817fffffffffffffffffffffffffffffffffffffffffffffffffffffffffffffffff048311821515161561282d5761282c6129ff565b5b828202905092915050565b6000612843826128d6565b915061284e836128d6565b925082821015612861576128606129ff565b5b828203905092915050565b6000612877826128b6565b9050919050565b60008115159050919050565b60007fffffffff0000000000000000000000000000000000000000000000000000000082169050919050565b600073ffffffffffffffffffffffffffffffffffffffff82169050919050565b6000819050919050565b82818337600083830152505050565b60005b8381101561290d5780820151818401526020810190506128f2565b8381111561291c576000848401525b50505050565b6000600282049050600182168061293a57607f821691505b6020821081141561294e5761294d612a5d565b5b50919050565b61295d82612abb565b810181811067ffffffffffffffff8211171561297c5761297b612a8c565b5b80604052505050565b6000612990826128d6565b91507fffffffffffffffffffffffffffffffffffffffffffffffffffffffffffffffff8214156129c3576129c26129ff565b5b600182019050919050565b60006129d9826128d6565b91506129e4836128d6565b9250826129f4576129f3612a2e565b5b828206905092915050565b7f4e487b7100000000000000000000000000000000000000000000000000000000600052601160045260246000fd5b7f4e487b7100000000000000000000000000000000000000000000000000000000600052601260045260246000fd5b7f4e487b7100000000000000000000000000000000000000000000000000000000600052602260045260246000fd5b7f4e487b7100000000000000000000000000000000000000000000000000000000600052604160045260246000fd5b6000601f19601f8301169050919050565b7f4552433732313a207472616e7366657220746f206e6f6e20455243373231526560008201527f63656976657220696d706c656d656e7465720000000000000000000000000000602082015250565b7f222c000000000000000000000000000000000000000000000000000000000000600082015250565b7f4552433732313a207472616e736665722066726f6d20696e636f72726563742060008201527f6f776e6572000000000000000000000000000000000000000000000000000000602082015250565b7f4552433732313a20746f6b656e20616c7265616479206d696e74656400000000600082015250565b7f4552433732313a207472616e7366657220746f20746865207a65726f2061646460008201527f7265737300000000000000000000000000000000000000000000000000000000602082015250565b7f4552433732313a20617070726f766520746f2063616c6c657200000000000000600082015250565b7f226465736372697074696f6e223a202200000000000000000000000000000000600082015250565b7f4552433732313a2061646472657373207a65726f206973206e6f74206120766160008201527f6c6964206f776e65720000000000000000000000000000000000000000000000602082015250565b7f45524337323155524953746f726167653a2055524920736574206f66206e6f6e60008201527f6578697374656e7420746f6b656e000000000000000000000000000000000000602082015250565b7f22616e696d6174696f6e5f75726c223a202268747470733a2f2f6f776e61642e60008201527f76657263656c2e6170702f766965772f00000000000000000000000000000000602082015250565b7f227d000000000000000000000000000000000000000000000000000000000000600082015250565b7f4552433732313a20617070726f76652063616c6c6572206973206e6f7420746f60008201527f6b656e206f776e6572206e6f7220617070726f76656420666f7220616c6c0000602082015250565b7f4552433732313a206d696e7420746f20746865207a65726f2061646472657373600082015250565b7f226e616d65223a20220000000000000000000000000000000000000000000000600082015250565b7f7b00000000000000000000000000000000000000000000000000000000000000600082015250565b7f4552433732313a20696e76616c696420746f6b656e2049440000000000000000600082015250565b7f4552433732313a20617070726f76616c20746f2063757272656e74206f776e6560008201527f7200000000000000000000000000000000000000000000000000000000000000602082015250565b7f646174613a6170706c69636174696f6e2f6a736f6e3b6261736536342c000000600082015250565b7f22696d616765223a202200000000000000000000000000000000000000000000600082015250565b7f4552433732313a2063616c6c6572206973206e6f7420746f6b656e206f776e6560008201527f72206e6f7220617070726f766564000000000000000000000000000000000000602082015250565b612f5f8161286c565b8114612f6a57600080fd5b50565b612f768161287e565b8114612f8157600080fd5b50565b612f8d8161288a565b8114612f9857600080fd5b50565b612fa4816128d6565b8114612faf57600080fd5b5056fe4142434445464748494a4b4c4d4e4f505152535455565758595a6162636465666768696a6b6c6d6e6f707172737475767778797a303132333435363738392b2fa2646970667358221220172d6aa8e32182a6ea18628de3c39b625b945f2ba1647253899527c79f528cd364736f6c63430008040033",
	"linkReferences": {},
	"deployedLinkReferences": {}
}