{
  "_format": "hh-sol-artifact-1",
  "contractName": "ADNFT",
  "sourceName": "contracts/ADNFT.sol",
  "abi": [
    {
      "inputs": [],
      "stateMutability": "nonpayable",
      "type": "constructor"
    },
    {
      "anonymous": false,
      "inputs": [
        {
          "indexed": true,
          "internalType": "address",
          "name": "owner",
          "type": "address"
        },
        {
          "indexed": true,
          "internalType": "address",
          "name": "approved",
          "type": "address"
        },
        {
          "indexed": true,
          "internalType": "uint256",
          "name": "tokenId",
          "type": "uint256"
        }
      ],
      "name": "Approval",
      "type": "event"
    },
    {
      "anonymous": false,
      "inputs": [
        {
          "indexed": true,
          "internalType": "address",
          "name": "owner",
          "type": "address"
        },
        {
          "indexed": true,
          "internalType": "address",
          "name": "operator",
          "type": "address"
        },
        {
          "indexed": false,
          "internalType": "bool",
          "name": "approved",
          "type": "bool"
        }
      ],
      "name": "ApprovalForAll",
      "type": "event"
    },
    {
      "anonymous": false,
      "inputs": [
        {
          "indexed": true,
          "internalType": "address",
          "name": "from",
          "type": "address"
        },
        {
          "indexed": true,
          "internalType": "address",
          "name": "to",
          "type": "address"
        },
        {
          "indexed": true,
          "internalType": "uint256",
          "name": "tokenId",
          "type": "uint256"
        }
      ],
      "name": "Transfer",
      "type": "event"
    },
    {
      "inputs": [
        {
          "internalType": "address",
          "name": "to",
          "type": "address"
        },
        {
          "internalType": "uint256",
          "name": "tokenId",
          "type": "uint256"
        }
      ],
      "name": "approve",
      "outputs": [],
      "stateMutability": "nonpayable",
      "type": "function"
    },
    {
      "inputs": [
        {
          "internalType": "address",
          "name": "owner",
          "type": "address"
        }
      ],
      "name": "balanceOf",
      "outputs": [
        {
          "internalType": "uint256",
          "name": "",
          "type": "uint256"
        }
      ],
      "stateMutability": "view",
      "type": "function"
    },
    {
      "inputs": [
        {
          "internalType": "uint256",
          "name": "tokenId",
          "type": "uint256"
        }
      ],
      "name": "getApproved",
      "outputs": [
        {
          "internalType": "address",
          "name": "",
          "type": "address"
        }
      ],
      "stateMutability": "view",
      "type": "function"
    },
    {
      "inputs": [
        {
          "internalType": "uint256",
          "name": "tokenId",
          "type": "uint256"
        },
        {
          "internalType": "string",
          "name": "ipfsLink",
          "type": "string"
        }
      ],
      "name": "getTokenURI",
      "outputs": [
        {
          "internalType": "string",
          "name": "",
          "type": "string"
        }
      ],
      "stateMutability": "pure",
      "type": "function"
    },
    {
      "inputs": [
        {
          "internalType": "address",
          "name": "owner",
          "type": "address"
        },
        {
          "internalType": "address",
          "name": "operator",
          "type": "address"
        }
      ],
      "name": "isApprovedForAll",
      "outputs": [
        {
          "internalType": "bool",
          "name": "",
          "type": "bool"
        }
      ],
      "stateMutability": "view",
      "type": "function"
    },
    {
      "inputs": [
        {
          "internalType": "string",
          "name": "_ipfsLink",
          "type": "string"
        }
      ],
      "name": "mint",
      "outputs": [
        {
          "internalType": "uint256",
          "name": "",
          "type": "uint256"
        }
      ],
      "stateMutability": "nonpayable",
      "type": "function"
    },
    {
      "inputs": [],
      "name": "name",
      "outputs": [
        {
          "internalType": "string",
          "name": "",
          "type": "string"
        }
      ],
      "stateMutability": "view",
      "type": "function"
    },
    {
      "inputs": [
        {
          "internalType": "uint256",
          "name": "tokenId",
          "type": "uint256"
        }
      ],
      "name": "ownerOf",
      "outputs": [
        {
          "internalType": "address",
          "name": "",
          "type": "address"
        }
      ],
      "stateMutability": "view",
      "type": "function"
    },
    {
      "inputs": [
        {
          "internalType": "address",
          "name": "from",
          "type": "address"
        },
        {
          "internalType": "address",
          "name": "to",
          "type": "address"
        },
        {
          "internalType": "uint256",
          "name": "tokenId",
          "type": "uint256"
        }
      ],
      "name": "safeTransferFrom",
      "outputs": [],
      "stateMutability": "nonpayable",
      "type": "function"
    },
    {
      "inputs": [
        {
          "internalType": "address",
          "name": "from",
          "type": "address"
        },
        {
          "internalType": "address",
          "name": "to",
          "type": "address"
        },
        {
          "internalType": "uint256",
          "name": "tokenId",
          "type": "uint256"
        },
        {
          "internalType": "bytes",
          "name": "data",
          "type": "bytes"
        }
      ],
      "name": "safeTransferFrom",
      "outputs": [],
      "stateMutability": "nonpayable",
      "type": "function"
    },
    {
      "inputs": [
        {
          "internalType": "address",
          "name": "operator",
          "type": "address"
        },
        {
          "internalType": "bool",
          "name": "approved",
          "type": "bool"
        }
      ],
      "name": "setApprovalForAll",
      "outputs": [],
      "stateMutability": "nonpayable",
      "type": "function"
    },
    {
      "inputs": [
        {
          "internalType": "bytes4",
          "name": "interfaceId",
          "type": "bytes4"
        }
      ],
      "name": "supportsInterface",
      "outputs": [
        {
          "internalType": "bool",
          "name": "",
          "type": "bool"
        }
      ],
      "stateMutability": "view",
      "type": "function"
    },
    {
      "inputs": [],
      "name": "symbol",
      "outputs": [
        {
          "internalType": "string",
          "name": "",
          "type": "string"
        }
      ],
      "stateMutability": "view",
      "type": "function"
    },
    {
      "inputs": [],
      "name": "tokenIds",
      "outputs": [
        {
          "internalType": "uint256",
          "name": "_value",
          "type": "uint256"
        }
      ],
      "stateMutability": "view",
      "type": "function"
    },
    {
      "inputs": [
        {
          "internalType": "uint256",
          "name": "tokenId",
          "type": "uint256"
        }
      ],
      "name": "tokenURI",
      "outputs": [
        {
          "internalType": "string",
          "name": "",
          "type": "string"
        }
      ],
      "stateMutability": "view",
      "type": "function"
    },
    {
      "inputs": [
        {
          "internalType": "address",
          "name": "from",
          "type": "address"
        },
        {
          "internalType": "address",
          "name": "to",
          "type": "address"
        },
        {
          "internalType": "uint256",
          "name": "tokenId",
          "type": "uint256"
        }
      ],
      "name": "transferFrom",
      "outputs": [],
      "stateMutability": "nonpayable",
      "type": "function"
    }
  ],
  "bytecode": "0x60806040523480156200001157600080fd5b506040518060400160405280600681526020017f4164204e465400000000000000000000000000000000000000000000000000008152506040518060400160405280600581526020017f41444e4654000000000000000000000000000000000000000000000000000000815250816000908051906020019062000096929190620000b8565b508060019080519060200190620000af929190620000b8565b505050620001cd565b828054620000c69062000168565b90600052602060002090601f016020900481019282620000ea576000855562000136565b82601f106200010557805160ff191683800117855562000136565b8280016001018555821562000136579182015b828111156200013557825182559160200191906001019062000118565b5b50905062000145919062000149565b5090565b5b80821115620001645760008160009055506001016200014a565b5090565b600060028204905060018216806200018157607f821691505b602082108114156200019857620001976200019e565b5b50919050565b7f4e487b7100000000000000000000000000000000000000000000000000000000600052602260045260246000fd5b612f8980620001dd6000396000f3fe608060405234801561001057600080fd5b50600436106101005760003560e01c806370a0823111610097578063b88d4fde11610066578063b88d4fde146102bf578063c87b56dd146102db578063d85d3d271461030b578063e985e9c51461033b57610100565b806370a0823114610237578063714cff561461026757806395d89b4114610285578063a22cb465146102a357610100565b80630c6ab5a7116100d35780630c6ab5a71461019f57806323b872dd146101cf57806342842e0e146101eb5780636352211e1461020757610100565b806301ffc9a71461010557806306fdde0314610135578063081812fc14610153578063095ea7b314610183575b600080fd5b61011f600480360381019061011a9190611e1e565b61036b565b60405161012c91906123f0565b60405180910390f35b61013d61044d565b60405161014a919061240b565b60405180910390f35b61016d60048036038101906101689190611eb1565b6104df565b60405161017a9190612389565b60405180910390f35b61019d60048036038101906101989190611de2565b610525565b005b6101b960048036038101906101b49190611eda565b61063d565b6040516101c6919061240b565b60405180910390f35b6101e960048036038101906101e49190611cdc565b6106a8565b005b61020560048036038101906102009190611cdc565b610708565b005b610221600480360381019061021c9190611eb1565b610728565b60405161022e9190612389565b60405180910390f35b610251600480360381019061024c9190611c77565b6107da565b60405161025e91906125ad565b60405180910390f35b61026f610892565b60405161027c91906125ad565b60405180910390f35b61028d61089e565b60405161029a919061240b565b60405180910390f35b6102bd60048036038101906102b89190611da6565b610930565b005b6102d960048036038101906102d49190611d2b565b610946565b005b6102f560048036038101906102f09190611eb1565b6109a8565b604051610302919061240b565b60405180910390f35b61032560048036038101906103209190611e70565b610abb565b60405161033291906125ad565b60405180910390f35b61035560048036038101906103509190611ca0565b610afb565b60405161036291906123f0565b60405180910390f35b60007f80ac58cd000000000000000000000000000000000000000000000000000000007bffffffffffffffffffffffffffffffffffffffffffffffffffffffff1916827bffffffffffffffffffffffffffffffffffffffffffffffffffffffff1916148061043657507f5b5e139f000000000000000000000000000000000000000000000000000000007bffffffffffffffffffffffffffffffffffffffffffffffffffffffff1916827bffffffffffffffffffffffffffffffffffffffffffffffffffffffff1916145b80610446575061044582610b8f565b5b9050919050565b60606000805461045c9061285d565b80601f01602080910402602001604051908101604052809291908181526020018280546104889061285d565b80156104d55780601f106104aa576101008083540402835291602001916104d5565b820191906000526020600020905b8154815290600101906020018083116104b857829003601f168201915b5050505050905090565b60006104ea82610bf9565b6004600083815260200190815260200160002060009054906101000a900473ffffffffffffffffffffffffffffffffffffffff169050919050565b600061053082610728565b90508073ffffffffffffffffffffffffffffffffffffffff168373ffffffffffffffffffffffffffffffffffffffff1614156105a1576040517f08c379a00000000000000000000000000000000000000000000000000000000081526004016105989061256d565b60405180910390fd5b8073ffffffffffffffffffffffffffffffffffffffff166105c0610c44565b73ffffffffffffffffffffffffffffffffffffffff1614806105ef57506105ee816105e9610c44565b610afb565b5b61062e576040517f08c379a00000000000000000000000000000000000000000000000000000000081526004016106259061250d565b60405180910390fd5b6106388383610c4c565b505050565b6060600061064a84610d05565b8361065486610d05565b604051602001610666939291906122de565b604051602081830303815290604052905061068081610eb2565b6040516020016106909190612367565b60405160208183030381529060405291505092915050565b6106b96106b3610c44565b8261103c565b6106f8576040517f08c379a00000000000000000000000000000000000000000000000000000000081526004016106ef9061258d565b60405180910390fd5b6107038383836110d1565b505050565b61072383838360405180602001604052806000815250610946565b505050565b6000806002600084815260200190815260200160002060009054906101000a900473ffffffffffffffffffffffffffffffffffffffff169050600073ffffffffffffffffffffffffffffffffffffffff168173ffffffffffffffffffffffffffffffffffffffff1614156107d1576040517f08c379a00000000000000000000000000000000000000000000000000000000081526004016107c89061254d565b60405180910390fd5b80915050919050565b60008073ffffffffffffffffffffffffffffffffffffffff168273ffffffffffffffffffffffffffffffffffffffff16141561084b576040517f08c379a0000000000000000000000000000000000000000000000000000000008152600401610842906124cd565b60405180910390fd5b600360008373ffffffffffffffffffffffffffffffffffffffff1673ffffffffffffffffffffffffffffffffffffffff168152602001908152602001600020549050919050565b60078060000154905081565b6060600180546108ad9061285d565b80601f01602080910402602001604051908101604052809291908181526020018280546108d99061285d565b80156109265780601f106108fb57610100808354040283529160200191610926565b820191906000526020600020905b81548152906001019060200180831161090957829003601f168201915b5050505050905090565b61094261093b610c44565b8383611338565b5050565b610957610951610c44565b8361103c565b610996576040517f08c379a000000000000000000000000000000000000000000000000000000000815260040161098d9061258d565b60405180910390fd5b6109a2848484846114a5565b50505050565b60606109b382610bf9565b60006006600084815260200190815260200160002080546109d39061285d565b80601f01602080910402602001604051908101604052809291908181526020018280546109ff9061285d565b8015610a4c5780601f10610a2157610100808354040283529160200191610a4c565b820191906000526020600020905b815481529060010190602001808311610a2f57829003601f168201915b505050505090506000610a5d611501565b9050600081511415610a73578192505050610ab6565b600082511115610aa8578082604051602001610a909291906122ba565b60405160208183030381529060405292505050610ab6565b610ab184611518565b925050505b919050565b6000610ac76007611580565b6000610ad36007611596565b9050610adf33826115a4565b610af281610aed838661063d565b6115c2565b80915050919050565b6000600560008473ffffffffffffffffffffffffffffffffffffffff1673ffffffffffffffffffffffffffffffffffffffff16815260200190815260200160002060008373ffffffffffffffffffffffffffffffffffffffff1673ffffffffffffffffffffffffffffffffffffffff16815260200190815260200160002060009054906101000a900460ff16905092915050565b60007f01ffc9a7000000000000000000000000000000000000000000000000000000007bffffffffffffffffffffffffffffffffffffffffffffffffffffffff1916827bffffffffffffffffffffffffffffffffffffffffffffffffffffffff1916149050919050565b610c0281611636565b610c41576040517f08c379a0000000000000000000000000000000000000000000000000000000008152600401610c389061254d565b60405180910390fd5b50565b600033905090565b816004600083815260200190815260200160002060006101000a81548173ffffffffffffffffffffffffffffffffffffffff021916908373ffffffffffffffffffffffffffffffffffffffff160217905550808273ffffffffffffffffffffffffffffffffffffffff16610cbf83610728565b73ffffffffffffffffffffffffffffffffffffffff167f8c5be1e5ebec7d5bd14f71427d1e84f3dd0314c0f7b2291e5b200ac8c7c3b92560405160405180910390a45050565b60606000821415610d4d576040518060400160405280600181526020017f30000000000000000000000000000000000000000000000000000000000000008152509050610ead565b600082905060005b60008214610d7f578080610d68906128c0565b915050600a82610d7891906126e8565b9150610d55565b60008167ffffffffffffffff811115610dc1577f4e487b7100000000000000000000000000000000000000000000000000000000600052604160045260246000fd5b6040519080825280601f01601f191660200182016040528015610df35781602001600182028036833780820191505090505b5090505b60008514610ea657600182610e0c9190612773565b9150600a85610e1b9190612909565b6030610e279190612692565b60f81b818381518110610e63577f4e487b7100000000000000000000000000000000000000000000000000000000600052603260045260246000fd5b60200101907effffffffffffffffffffffffffffffffffffffffffffffffffffffffffffff1916908160001a905350600a85610e9f91906126e8565b9450610df7565b8093505050505b919050565b6060600082511415610ed557604051806020016040528060008152509050611037565b6000604051806060016040528060408152602001612f146040913990506000600360028551610f049190612692565b610f0e91906126e8565b6004610f1a9190612719565b67ffffffffffffffff811115610f59577f4e487b7100000000000000000000000000000000000000000000000000000000600052604160045260246000fd5b6040519080825280601f01601f191660200182016040528015610f8b5781602001600182028036833780820191505090505b509050600182016020820185865187015b80821015610ff7576003820191508151603f8160121c168501518453600184019350603f81600c1c168501518453600184019350603f8160061c168501518453600184019350603f8116850151845360018401935050610f9c565b505060038651066001811461101357600281146110265761102e565b603d6001830353603d600283035361102e565b603d60018303535b50505080925050505b919050565b60008061104883610728565b90508073ffffffffffffffffffffffffffffffffffffffff168473ffffffffffffffffffffffffffffffffffffffff16148061108a57506110898185610afb565b5b806110c857508373ffffffffffffffffffffffffffffffffffffffff166110b0846104df565b73ffffffffffffffffffffffffffffffffffffffff16145b91505092915050565b8273ffffffffffffffffffffffffffffffffffffffff166110f182610728565b73ffffffffffffffffffffffffffffffffffffffff1614611147576040517f08c379a000000000000000000000000000000000000000000000000000000000815260040161113e9061244d565b60405180910390fd5b600073ffffffffffffffffffffffffffffffffffffffff168273ffffffffffffffffffffffffffffffffffffffff1614156111b7576040517f08c379a00000000000000000000000000000000000000000000000000000000081526004016111ae9061248d565b60405180910390fd5b6111c28383836116a2565b6111cd600082610c4c565b6001600360008573ffffffffffffffffffffffffffffffffffffffff1673ffffffffffffffffffffffffffffffffffffffff168152602001908152602001600020600082825461121d9190612773565b925050819055506001600360008473ffffffffffffffffffffffffffffffffffffffff1673ffffffffffffffffffffffffffffffffffffffff16815260200190815260200160002060008282546112749190612692565b92505081905550816002600083815260200190815260200160002060006101000a81548173ffffffffffffffffffffffffffffffffffffffff021916908373ffffffffffffffffffffffffffffffffffffffff160217905550808273ffffffffffffffffffffffffffffffffffffffff168473ffffffffffffffffffffffffffffffffffffffff167fddf252ad1be2c89b69c2b068fc378daa952ba7f163c4a11628f55a4df523b3ef60405160405180910390a46113338383836116a7565b505050565b8173ffffffffffffffffffffffffffffffffffffffff168373ffffffffffffffffffffffffffffffffffffffff1614156113a7576040517f08c379a000000000000000000000000000000000000000000000000000000000815260040161139e906124ad565b60405180910390fd5b80600560008573ffffffffffffffffffffffffffffffffffffffff1673ffffffffffffffffffffffffffffffffffffffff16815260200190815260200160002060008473ffffffffffffffffffffffffffffffffffffffff1673ffffffffffffffffffffffffffffffffffffffff16815260200190815260200160002060006101000a81548160ff0219169083151502179055508173ffffffffffffffffffffffffffffffffffffffff168373ffffffffffffffffffffffffffffffffffffffff167f17307eab39ab6107e8899845ad3d59bd9653f200f220920489ca2b5937696c318360405161149891906123f0565b60405180910390a3505050565b6114b08484846110d1565b6114bc848484846116ac565b6114fb576040517f08c379a00000000000000000000000000000000000000000000000000000000081526004016114f29061242d565b60405180910390fd5b50505050565b606060405180602001604052806000815250905090565b606061152382610bf9565b600061152d611501565b9050600081511161154d5760405180602001604052806000815250611578565b8061155784610d05565b6040516020016115689291906122ba565b6040516020818303038152906040525b915050919050565b6001816000016000828254019250508190555050565b600081600001549050919050565b6115be828260405180602001604052806000815250611843565b5050565b6115cb82611636565b61160a576040517f08c379a0000000000000000000000000000000000000000000000000000000008152600401611601906124ed565b60405180910390fd5b80600660008481526020019081526020016000209080519060200190611631929190611a9b565b505050565b60008073ffffffffffffffffffffffffffffffffffffffff166002600084815260200190815260200160002060009054906101000a900473ffffffffffffffffffffffffffffffffffffffff1673ffffffffffffffffffffffffffffffffffffffff1614159050919050565b505050565b505050565b60006116cd8473ffffffffffffffffffffffffffffffffffffffff1661189e565b15611836578373ffffffffffffffffffffffffffffffffffffffff1663150b7a026116f6610c44565b8786866040518563ffffffff1660e01b815260040161171894939291906123a4565b602060405180830381600087803b15801561173257600080fd5b505af192505050801561176357506040513d601f19601f820116820180604052508101906117609190611e47565b60015b6117e6573d8060008114611793576040519150601f19603f3d011682016040523d82523d6000602084013e611798565b606091505b506000815114156117de576040517f08c379a00000000000000000000000000000000000000000000000000000000081526004016117d59061242d565b60405180910390fd5b805181602001fd5b63150b7a0260e01b7bffffffffffffffffffffffffffffffffffffffffffffffffffffffff1916817bffffffffffffffffffffffffffffffffffffffffffffffffffffffff19161491505061183b565b600190505b949350505050565b61184d83836118c1565b61185a60008484846116ac565b611899576040517f08c379a00000000000000000000000000000000000000000000000000000000081526004016118909061242d565b60405180910390fd5b505050565b6000808273ffffffffffffffffffffffffffffffffffffffff163b119050919050565b600073ffffffffffffffffffffffffffffffffffffffff168273ffffffffffffffffffffffffffffffffffffffff161415611931576040517f08c379a00000000000000000000000000000000000000000000000000000000081526004016119289061252d565b60405180910390fd5b61193a81611636565b1561197a576040517f08c379a00000000000000000000000000000000000000000000000000000000081526004016119719061246d565b60405180910390fd5b611986600083836116a2565b6001600360008473ffffffffffffffffffffffffffffffffffffffff1673ffffffffffffffffffffffffffffffffffffffff16815260200190815260200160002060008282546119d69190612692565b92505081905550816002600083815260200190815260200160002060006101000a81548173ffffffffffffffffffffffffffffffffffffffff021916908373ffffffffffffffffffffffffffffffffffffffff160217905550808273ffffffffffffffffffffffffffffffffffffffff16600073ffffffffffffffffffffffffffffffffffffffff167fddf252ad1be2c89b69c2b068fc378daa952ba7f163c4a11628f55a4df523b3ef60405160405180910390a4611a97600083836116a7565b5050565b828054611aa79061285d565b90600052602060002090601f016020900481019282611ac95760008555611b10565b82601f10611ae257805160ff1916838001178555611b10565b82800160010185558215611b10579182015b82811115611b0f578251825591602001919060010190611af4565b5b509050611b1d9190611b21565b5090565b5b80821115611b3a576000816000905550600101611b22565b5090565b6000611b51611b4c846125ed565b6125c8565b905082815260208101848484011115611b6957600080fd5b611b7484828561281b565b509392505050565b6000611b8f611b8a8461261e565b6125c8565b905082815260208101848484011115611ba757600080fd5b611bb284828561281b565b509392505050565b600081359050611bc981612eb7565b92915050565b600081359050611bde81612ece565b92915050565b600081359050611bf381612ee5565b92915050565b600081519050611c0881612ee5565b92915050565b600082601f830112611c1f57600080fd5b8135611c2f848260208601611b3e565b91505092915050565b600082601f830112611c4957600080fd5b8135611c59848260208601611b7c565b91505092915050565b600081359050611c7181612efc565b92915050565b600060208284031215611c8957600080fd5b6000611c9784828501611bba565b91505092915050565b60008060408385031215611cb357600080fd5b6000611cc185828601611bba565b9250506020611cd285828601611bba565b9150509250929050565b600080600060608486031215611cf157600080fd5b6000611cff86828701611bba565b9350506020611d1086828701611bba565b9250506040611d2186828701611c62565b9150509250925092565b60008060008060808587031215611d4157600080fd5b6000611d4f87828801611bba565b9450506020611d6087828801611bba565b9350506040611d7187828801611c62565b925050606085013567ffffffffffffffff811115611d8e57600080fd5b611d9a87828801611c0e565b91505092959194509250565b60008060408385031215611db957600080fd5b6000611dc785828601611bba565b9250506020611dd885828601611bcf565b9150509250929050565b60008060408385031215611df557600080fd5b6000611e0385828601611bba565b9250506020611e1485828601611c62565b9150509250929050565b600060208284031215611e3057600080fd5b6000611e3e84828501611be4565b91505092915050565b600060208284031215611e5957600080fd5b6000611e6784828501611bf9565b91505092915050565b600060208284031215611e8257600080fd5b600082013567ffffffffffffffff811115611e9c57600080fd5b611ea884828501611c38565b91505092915050565b600060208284031215611ec357600080fd5b6000611ed184828501611c62565b91505092915050565b60008060408385031215611eed57600080fd5b6000611efb85828601611c62565b925050602083013567ffffffffffffffff811115611f1857600080fd5b611f2485828601611c38565b9150509250929050565b611f37816127a7565b82525050565b611f46816127b9565b82525050565b6000611f578261264f565b611f618185612665565b9350611f7181856020860161282a565b611f7a816129f6565b840191505092915050565b6000611f908261265a565b611f9a8185612676565b9350611faa81856020860161282a565b611fb3816129f6565b840191505092915050565b6000611fc98261265a565b611fd38185612687565b9350611fe381856020860161282a565b80840191505092915050565b6000611ffc603783612687565b915061200782612a07565b603782019050919050565b600061201f603283612676565b915061202a82612a56565b604082019050919050565b6000612042603083612687565b915061204d82612aa5565b603082019050919050565b6000612065600283612687565b915061207082612af4565b600282019050919050565b6000612088602583612676565b915061209382612b1d565b604082019050919050565b60006120ab601c83612676565b91506120b682612b6c565b602082019050919050565b60006120ce602483612676565b91506120d982612b95565b604082019050919050565b60006120f1601983612676565b91506120fc82612be4565b602082019050919050565b6000612114602983612676565b915061211f82612c0d565b604082019050919050565b6000612137602e83612676565b915061214282612c5c565b604082019050919050565b600061215a600283612687565b915061216582612cab565b600282019050919050565b600061217d603e83612676565b915061218882612cd4565b604082019050919050565b60006121a0602083612676565b91506121ab82612d23565b602082019050919050565b60006121c3600183612687565b91506121ce82612d4c565b600182019050919050565b60006121e6601883612676565b91506121f182612d75565b602082019050919050565b6000612209602183612676565b915061221482612d9e565b604082019050919050565b600061222c601d83612687565b915061223782612ded565b601d82019050919050565b600061224f600a83612687565b915061225a82612e16565b600a82019050919050565b6000612272602e83612676565b915061227d82612e3f565b604082019050919050565b6000612295601183612687565b91506122a082612e8e565b601182019050919050565b6122b481612811565b82525050565b60006122c68285611fbe565b91506122d28284611fbe565b91508190509392505050565b60006122e9826121b6565b91506122f482612288565b91506123008286611fbe565b915061230b82612058565b915061231682612035565b915061232182612242565b915061232d8285611fbe565b915061233882612058565b915061234382611fef565b915061234f8284611fbe565b915061235a8261214d565b9150819050949350505050565b60006123728261221f565b915061237e8284611fbe565b915081905092915050565b600060208201905061239e6000830184611f2e565b92915050565b60006080820190506123b96000830187611f2e565b6123c66020830186611f2e565b6123d360408301856122ab565b81810360608301526123e58184611f4c565b905095945050505050565b60006020820190506124056000830184611f3d565b92915050565b600060208201905081810360008301526124258184611f85565b905092915050565b6000602082019050818103600083015261244681612012565b9050919050565b600060208201905081810360008301526124668161207b565b9050919050565b600060208201905081810360008301526124868161209e565b9050919050565b600060208201905081810360008301526124a6816120c1565b9050919050565b600060208201905081810360008301526124c6816120e4565b9050919050565b600060208201905081810360008301526124e681612107565b9050919050565b600060208201905081810360008301526125068161212a565b9050919050565b6000602082019050818103600083015261252681612170565b9050919050565b6000602082019050818103600083015261254681612193565b9050919050565b60006020820190508181036000830152612566816121d9565b9050919050565b60006020820190508181036000830152612586816121fc565b9050919050565b600060208201905081810360008301526125a681612265565b9050919050565b60006020820190506125c260008301846122ab565b92915050565b60006125d26125e3565b90506125de828261288f565b919050565b6000604051905090565b600067ffffffffffffffff821115612608576126076129c7565b5b612611826129f6565b9050602081019050919050565b600067ffffffffffffffff821115612639576126386129c7565b5b612642826129f6565b9050602081019050919050565b600081519050919050565b600081519050919050565b600082825260208201905092915050565b600082825260208201905092915050565b600081905092915050565b600061269d82612811565b91506126a883612811565b9250827fffffffffffffffffffffffffffffffffffffffffffffffffffffffffffffffff038211156126dd576126dc61293a565b5b828201905092915050565b60006126f382612811565b91506126fe83612811565b92508261270e5761270d612969565b5b828204905092915050565b600061272482612811565b915061272f83612811565b9250817fffffffffffffffffffffffffffffffffffffffffffffffffffffffffffffffff04831182151516156127685761276761293a565b5b828202905092915050565b600061277e82612811565b915061278983612811565b92508282101561279c5761279b61293a565b5b828203905092915050565b60006127b2826127f1565b9050919050565b60008115159050919050565b60007fffffffff0000000000000000000000000000000000000000000000000000000082169050919050565b600073ffffffffffffffffffffffffffffffffffffffff82169050919050565b6000819050919050565b82818337600083830152505050565b60005b8381101561284857808201518184015260208101905061282d565b83811115612857576000848401525b50505050565b6000600282049050600182168061287557607f821691505b6020821081141561288957612888612998565b5b50919050565b612898826129f6565b810181811067ffffffffffffffff821117156128b7576128b66129c7565b5b80604052505050565b60006128cb82612811565b91507fffffffffffffffffffffffffffffffffffffffffffffffffffffffffffffffff8214156128fe576128fd61293a565b5b600182019050919050565b600061291482612811565b915061291f83612811565b92508261292f5761292e612969565b5b828206905092915050565b7f4e487b7100000000000000000000000000000000000000000000000000000000600052601160045260246000fd5b7f4e487b7100000000000000000000000000000000000000000000000000000000600052601260045260246000fd5b7f4e487b7100000000000000000000000000000000000000000000000000000000600052602260045260246000fd5b7f4e487b7100000000000000000000000000000000000000000000000000000000600052604160045260246000fd5b6000601f19601f8301169050919050565b7f22616e696d6174696f6e5f75726c223a202268747470733a2f2f657468696e6460008201527f69612d6f6e652e76657263656c2e6170702f766965772f000000000000000000602082015250565b7f4552433732313a207472616e7366657220746f206e6f6e20455243373231526560008201527f63656976657220696d706c656d656e7465720000000000000000000000000000602082015250565b7f226465736372697074696f6e223a2022596f7572204e4654206973207468652060008201527f6e6578742041642053706163652e222c00000000000000000000000000000000602082015250565b7f222c000000000000000000000000000000000000000000000000000000000000600082015250565b7f4552433732313a207472616e736665722066726f6d20696e636f72726563742060008201527f6f776e6572000000000000000000000000000000000000000000000000000000602082015250565b7f4552433732313a20746f6b656e20616c7265616479206d696e74656400000000600082015250565b7f4552433732313a207472616e7366657220746f20746865207a65726f2061646460008201527f7265737300000000000000000000000000000000000000000000000000000000602082015250565b7f4552433732313a20617070726f766520746f2063616c6c657200000000000000600082015250565b7f4552433732313a2061646472657373207a65726f206973206e6f74206120766160008201527f6c6964206f776e65720000000000000000000000000000000000000000000000602082015250565b7f45524337323155524953746f726167653a2055524920736574206f66206e6f6e60008201527f6578697374656e7420746f6b656e000000000000000000000000000000000000602082015250565b7f227d000000000000000000000000000000000000000000000000000000000000600082015250565b7f4552433732313a20617070726f76652063616c6c6572206973206e6f7420746f60008201527f6b656e206f776e6572206e6f7220617070726f76656420666f7220616c6c0000602082015250565b7f4552433732313a206d696e7420746f20746865207a65726f2061646472657373600082015250565b7f7b00000000000000000000000000000000000000000000000000000000000000600082015250565b7f4552433732313a20696e76616c696420746f6b656e2049440000000000000000600082015250565b7f4552433732313a20617070726f76616c20746f2063757272656e74206f776e6560008201527f7200000000000000000000000000000000000000000000000000000000000000602082015250565b7f646174613a6170706c69636174696f6e2f6a736f6e3b6261736536342c000000600082015250565b7f22696d616765223a202200000000000000000000000000000000000000000000600082015250565b7f4552433732313a2063616c6c6572206973206e6f7420746f6b656e206f776e6560008201527f72206e6f7220617070726f766564000000000000000000000000000000000000602082015250565b7f226e616d65223a20224144204e46542023000000000000000000000000000000600082015250565b612ec0816127a7565b8114612ecb57600080fd5b50565b612ed7816127b9565b8114612ee257600080fd5b50565b612eee816127c5565b8114612ef957600080fd5b50565b612f0581612811565b8114612f1057600080fd5b5056fe4142434445464748494a4b4c4d4e4f505152535455565758595a6162636465666768696a6b6c6d6e6f707172737475767778797a303132333435363738392b2fa26469706673582212208f884339572fc1249dd60c3f3f0604cb4fae4cfddf6c5b99923fcfac38382ad764736f6c63430008040033",
  "linkReferences": {},
  "deployedLinkReferences": {}
}