{
  "_format": "hh-sol-artifact-1",
  "contractName": "ADNFT",
  "sourceName": "contracts/ADNFT.sol",
  "abi": [
    {
      "inputs": [],
      "stateMutability": "nonpayable",
      "type": "constructor"
    },
    {
      "anonymous": false,
      "inputs": [
        {
          "indexed": true,
          "internalType": "address",
          "name": "owner",
          "type": "address"
        },
        {
          "indexed": true,
          "internalType": "address",
          "name": "approved",
          "type": "address"
        },
        {
          "indexed": true,
          "internalType": "uint256",
          "name": "tokenId",
          "type": "uint256"
        }
      ],
      "name": "Approval",
      "type": "event"
    },
    {
      "anonymous": false,
      "inputs": [
        {
          "indexed": true,
          "internalType": "address",
          "name": "owner",
          "type": "address"
        },
        {
          "indexed": true,
          "internalType": "address",
          "name": "operator",
          "type": "address"
        },
        {
          "indexed": false,
          "internalType": "bool",
          "name": "approved",
          "type": "bool"
        }
      ],
      "name": "ApprovalForAll",
      "type": "event"
    },
    {
      "anonymous": false,
      "inputs": [
        {
          "indexed": true,
          "internalType": "address",
          "name": "from",
          "type": "address"
        },
        {
          "indexed": true,
          "internalType": "address",
          "name": "to",
          "type": "address"
        },
        {
          "indexed": true,
          "internalType": "uint256",
          "name": "tokenId",
          "type": "uint256"
        }
      ],
      "name": "Transfer",
      "type": "event"
    },
    {
      "inputs": [
        {
          "internalType": "address",
          "name": "to",
          "type": "address"
        },
        {
          "internalType": "uint256",
          "name": "tokenId",
          "type": "uint256"
        }
      ],
      "name": "approve",
      "outputs": [],
      "stateMutability": "nonpayable",
      "type": "function"
    },
    {
      "inputs": [
        {
          "internalType": "address",
          "name": "owner",
          "type": "address"
        }
      ],
      "name": "balanceOf",
      "outputs": [
        {
          "internalType": "uint256",
          "name": "",
          "type": "uint256"
        }
      ],
      "stateMutability": "view",
      "type": "function"
    },
    {
      "inputs": [
        {
          "internalType": "uint256",
          "name": "tokenId",
          "type": "uint256"
        }
      ],
      "name": "getApproved",
      "outputs": [
        {
          "internalType": "address",
          "name": "",
          "type": "address"
        }
      ],
      "stateMutability": "view",
      "type": "function"
    },
    {
      "inputs": [
        {
          "internalType": "uint256",
          "name": "tokenId",
          "type": "uint256"
        },
        {
          "internalType": "string",
          "name": "ipfsLink",
          "type": "string"
        }
      ],
      "name": "getTokenURI",
      "outputs": [
        {
          "internalType": "string",
          "name": "",
          "type": "string"
        }
      ],
      "stateMutability": "pure",
      "type": "function"
    },
    {
      "inputs": [
        {
          "internalType": "address",
          "name": "owner",
          "type": "address"
        },
        {
          "internalType": "address",
          "name": "operator",
          "type": "address"
        }
      ],
      "name": "isApprovedForAll",
      "outputs": [
        {
          "internalType": "bool",
          "name": "",
          "type": "bool"
        }
      ],
      "stateMutability": "view",
      "type": "function"
    },
    {
      "inputs": [
        {
          "internalType": "string",
          "name": "_ipfsLink",
          "type": "string"
        }
      ],
      "name": "mint",
      "outputs": [],
      "stateMutability": "nonpayable",
      "type": "function"
    },
    {
      "inputs": [],
      "name": "name",
      "outputs": [
        {
          "internalType": "string",
          "name": "",
          "type": "string"
        }
      ],
      "stateMutability": "view",
      "type": "function"
    },
    {
      "inputs": [
        {
          "internalType": "uint256",
          "name": "tokenId",
          "type": "uint256"
        }
      ],
      "name": "ownerOf",
      "outputs": [
        {
          "internalType": "address",
          "name": "",
          "type": "address"
        }
      ],
      "stateMutability": "view",
      "type": "function"
    },
    {
      "inputs": [
        {
          "internalType": "address",
          "name": "from",
          "type": "address"
        },
        {
          "internalType": "address",
          "name": "to",
          "type": "address"
        },
        {
          "internalType": "uint256",
          "name": "tokenId",
          "type": "uint256"
        }
      ],
      "name": "safeTransferFrom",
      "outputs": [],
      "stateMutability": "nonpayable",
      "type": "function"
    },
    {
      "inputs": [
        {
          "internalType": "address",
          "name": "from",
          "type": "address"
        },
        {
          "internalType": "address",
          "name": "to",
          "type": "address"
        },
        {
          "internalType": "uint256",
          "name": "tokenId",
          "type": "uint256"
        },
        {
          "internalType": "bytes",
          "name": "data",
          "type": "bytes"
        }
      ],
      "name": "safeTransferFrom",
      "outputs": [],
      "stateMutability": "nonpayable",
      "type": "function"
    },
    {
      "inputs": [
        {
          "internalType": "address",
          "name": "operator",
          "type": "address"
        },
        {
          "internalType": "bool",
          "name": "approved",
          "type": "bool"
        }
      ],
      "name": "setApprovalForAll",
      "outputs": [],
      "stateMutability": "nonpayable",
      "type": "function"
    },
    {
      "inputs": [
        {
          "internalType": "bytes4",
          "name": "interfaceId",
          "type": "bytes4"
        }
      ],
      "name": "supportsInterface",
      "outputs": [
        {
          "internalType": "bool",
          "name": "",
          "type": "bool"
        }
      ],
      "stateMutability": "view",
      "type": "function"
    },
    {
      "inputs": [],
      "name": "symbol",
      "outputs": [
        {
          "internalType": "string",
          "name": "",
          "type": "string"
        }
      ],
      "stateMutability": "view",
      "type": "function"
    },
    {
      "inputs": [],
      "name": "tokenIds",
      "outputs": [
        {
          "internalType": "uint256",
          "name": "_value",
          "type": "uint256"
        }
      ],
      "stateMutability": "view",
      "type": "function"
    },
    {
      "inputs": [
        {
          "internalType": "uint256",
          "name": "tokenId",
          "type": "uint256"
        }
      ],
      "name": "tokenURI",
      "outputs": [
        {
          "internalType": "string",
          "name": "",
          "type": "string"
        }
      ],
      "stateMutability": "view",
      "type": "function"
    },
    {
      "inputs": [
        {
          "internalType": "address",
          "name": "from",
          "type": "address"
        },
        {
          "internalType": "address",
          "name": "to",
          "type": "address"
        },
        {
          "internalType": "uint256",
          "name": "tokenId",
          "type": "uint256"
        }
      ],
      "name": "transferFrom",
      "outputs": [],
      "stateMutability": "nonpayable",
      "type": "function"
    }
  ],
  "bytecode": "0x60806040523480156200001157600080fd5b506040518060400160405280600681526020017f4164204e465400000000000000000000000000000000000000000000000000008152506040518060400160405280600581526020017f41444e4654000000000000000000000000000000000000000000000000000000815250816000908051906020019062000096929190620000b8565b508060019080519060200190620000af929190620000b8565b505050620001cd565b828054620000c69062000168565b90600052602060002090601f016020900481019282620000ea576000855562000136565b82601f106200010557805160ff191683800117855562000136565b8280016001018555821562000136579182015b828111156200013557825182559160200191906001019062000118565b5b50905062000145919062000149565b5090565b5b80821115620001645760008160009055506001016200014a565b5090565b600060028204905060018216806200018157607f821691505b602082108114156200019857620001976200019e565b5b50919050565b7f4e487b7100000000000000000000000000000000000000000000000000000000600052602260045260246000fd5b612f6e80620001dd6000396000f3fe608060405234801561001057600080fd5b50600436106101005760003560e01c806370a0823111610097578063b88d4fde11610066578063b88d4fde146102bf578063c87b56dd146102db578063d85d3d271461030b578063e985e9c51461032757610100565b806370a0823114610237578063714cff561461026757806395d89b4114610285578063a22cb465146102a357610100565b80630c6ab5a7116100d35780630c6ab5a71461019f57806323b872dd146101cf57806342842e0e146101eb5780636352211e1461020757610100565b806301ffc9a71461010557806306fdde0314610135578063081812fc14610153578063095ea7b314610183575b600080fd5b61011f600480360381019061011a9190611e03565b610357565b60405161012c91906123d5565b60405180910390f35b61013d610439565b60405161014a91906123f0565b60405180910390f35b61016d60048036038101906101689190611e96565b6104cb565b60405161017a919061236e565b60405180910390f35b61019d60048036038101906101989190611dc7565b610511565b005b6101b960048036038101906101b49190611ebf565b610629565b6040516101c691906123f0565b60405180910390f35b6101e960048036038101906101e49190611cc1565b610694565b005b61020560048036038101906102009190611cc1565b6106f4565b005b610221600480360381019061021c9190611e96565b610714565b60405161022e919061236e565b60405180910390f35b610251600480360381019061024c9190611c5c565b6107c6565b60405161025e9190612592565b60405180910390f35b61026f61087e565b60405161027c9190612592565b60405180910390f35b61028d61088a565b60405161029a91906123f0565b60405180910390f35b6102bd60048036038101906102b89190611d8b565b61091c565b005b6102d960048036038101906102d49190611d10565b610932565b005b6102f560048036038101906102f09190611e96565b610994565b60405161030291906123f0565b60405180910390f35b61032560048036038101906103209190611e55565b610aa7565b005b610341600480360381019061033c9190611c85565b610ae0565b60405161034e91906123d5565b60405180910390f35b60007f80ac58cd000000000000000000000000000000000000000000000000000000007bffffffffffffffffffffffffffffffffffffffffffffffffffffffff1916827bffffffffffffffffffffffffffffffffffffffffffffffffffffffff1916148061042257507f5b5e139f000000000000000000000000000000000000000000000000000000007bffffffffffffffffffffffffffffffffffffffffffffffffffffffff1916827bffffffffffffffffffffffffffffffffffffffffffffffffffffffff1916145b80610432575061043182610b74565b5b9050919050565b60606000805461044890612842565b80601f016020809104026020016040519081016040528092919081815260200182805461047490612842565b80156104c15780601f10610496576101008083540402835291602001916104c1565b820191906000526020600020905b8154815290600101906020018083116104a457829003601f168201915b5050505050905090565b60006104d682610bde565b6004600083815260200190815260200160002060009054906101000a900473ffffffffffffffffffffffffffffffffffffffff169050919050565b600061051c82610714565b90508073ffffffffffffffffffffffffffffffffffffffff168373ffffffffffffffffffffffffffffffffffffffff16141561058d576040517f08c379a000000000000000000000000000000000000000000000000000000000815260040161058490612552565b60405180910390fd5b8073ffffffffffffffffffffffffffffffffffffffff166105ac610c29565b73ffffffffffffffffffffffffffffffffffffffff1614806105db57506105da816105d5610c29565b610ae0565b5b61061a576040517f08c379a0000000000000000000000000000000000000000000000000000000008152600401610611906124f2565b60405180910390fd5b6106248383610c31565b505050565b6060600061063684610cea565b8361064086610cea565b604051602001610652939291906122c3565b604051602081830303815290604052905061066c81610e97565b60405160200161067c919061234c565b60405160208183030381529060405291505092915050565b6106a561069f610c29565b82611021565b6106e4576040517f08c379a00000000000000000000000000000000000000000000000000000000081526004016106db90612572565b60405180910390fd5b6106ef8383836110b6565b505050565b61070f83838360405180602001604052806000815250610932565b505050565b6000806002600084815260200190815260200160002060009054906101000a900473ffffffffffffffffffffffffffffffffffffffff169050600073ffffffffffffffffffffffffffffffffffffffff168173ffffffffffffffffffffffffffffffffffffffff1614156107bd576040517f08c379a00000000000000000000000000000000000000000000000000000000081526004016107b490612532565b60405180910390fd5b80915050919050565b60008073ffffffffffffffffffffffffffffffffffffffff168273ffffffffffffffffffffffffffffffffffffffff161415610837576040517f08c379a000000000000000000000000000000000000000000000000000000000815260040161082e906124b2565b60405180910390fd5b600360008373ffffffffffffffffffffffffffffffffffffffff1673ffffffffffffffffffffffffffffffffffffffff168152602001908152602001600020549050919050565b60078060000154905081565b60606001805461089990612842565b80601f01602080910402602001604051908101604052809291908181526020018280546108c590612842565b80156109125780601f106108e757610100808354040283529160200191610912565b820191906000526020600020905b8154815290600101906020018083116108f557829003601f168201915b5050505050905090565b61092e610927610c29565b838361131d565b5050565b61094361093d610c29565b83611021565b610982576040517f08c379a000000000000000000000000000000000000000000000000000000000815260040161097990612572565b60405180910390fd5b61098e8484848461148a565b50505050565b606061099f82610bde565b60006006600084815260200190815260200160002080546109bf90612842565b80601f01602080910402602001604051908101604052809291908181526020018280546109eb90612842565b8015610a385780601f10610a0d57610100808354040283529160200191610a38565b820191906000526020600020905b815481529060010190602001808311610a1b57829003601f168201915b505050505090506000610a496114e6565b9050600081511415610a5f578192505050610aa2565b600082511115610a94578082604051602001610a7c92919061229f565b60405160208183030381529060405292505050610aa2565b610a9d846114fd565b925050505b919050565b610ab16007611565565b6000610abd600761157b565b9050610ac93382611589565b610adc81610ad78385610629565b6115a7565b5050565b6000600560008473ffffffffffffffffffffffffffffffffffffffff1673ffffffffffffffffffffffffffffffffffffffff16815260200190815260200160002060008373ffffffffffffffffffffffffffffffffffffffff1673ffffffffffffffffffffffffffffffffffffffff16815260200190815260200160002060009054906101000a900460ff16905092915050565b60007f01ffc9a7000000000000000000000000000000000000000000000000000000007bffffffffffffffffffffffffffffffffffffffffffffffffffffffff1916827bffffffffffffffffffffffffffffffffffffffffffffffffffffffff1916149050919050565b610be78161161b565b610c26576040517f08c379a0000000000000000000000000000000000000000000000000000000008152600401610c1d90612532565b60405180910390fd5b50565b600033905090565b816004600083815260200190815260200160002060006101000a81548173ffffffffffffffffffffffffffffffffffffffff021916908373ffffffffffffffffffffffffffffffffffffffff160217905550808273ffffffffffffffffffffffffffffffffffffffff16610ca483610714565b73ffffffffffffffffffffffffffffffffffffffff167f8c5be1e5ebec7d5bd14f71427d1e84f3dd0314c0f7b2291e5b200ac8c7c3b92560405160405180910390a45050565b60606000821415610d32576040518060400160405280600181526020017f30000000000000000000000000000000000000000000000000000000000000008152509050610e92565b600082905060005b60008214610d64578080610d4d906128a5565b915050600a82610d5d91906126cd565b9150610d3a565b60008167ffffffffffffffff811115610da6577f4e487b7100000000000000000000000000000000000000000000000000000000600052604160045260246000fd5b6040519080825280601f01601f191660200182016040528015610dd85781602001600182028036833780820191505090505b5090505b60008514610e8b57600182610df19190612758565b9150600a85610e0091906128ee565b6030610e0c9190612677565b60f81b818381518110610e48577f4e487b7100000000000000000000000000000000000000000000000000000000600052603260045260246000fd5b60200101907effffffffffffffffffffffffffffffffffffffffffffffffffffffffffffff1916908160001a905350600a85610e8491906126cd565b9450610ddc565b8093505050505b919050565b6060600082511415610eba5760405180602001604052806000815250905061101c565b6000604051806060016040528060408152602001612ef96040913990506000600360028551610ee99190612677565b610ef391906126cd565b6004610eff91906126fe565b67ffffffffffffffff811115610f3e577f4e487b7100000000000000000000000000000000000000000000000000000000600052604160045260246000fd5b6040519080825280601f01601f191660200182016040528015610f705781602001600182028036833780820191505090505b509050600182016020820185865187015b80821015610fdc576003820191508151603f8160121c168501518453600184019350603f81600c1c168501518453600184019350603f8160061c168501518453600184019350603f8116850151845360018401935050610f81565b5050600386510660018114610ff8576002811461100b57611013565b603d6001830353603d6002830353611013565b603d60018303535b50505080925050505b919050565b60008061102d83610714565b90508073ffffffffffffffffffffffffffffffffffffffff168473ffffffffffffffffffffffffffffffffffffffff16148061106f575061106e8185610ae0565b5b806110ad57508373ffffffffffffffffffffffffffffffffffffffff16611095846104cb565b73ffffffffffffffffffffffffffffffffffffffff16145b91505092915050565b8273ffffffffffffffffffffffffffffffffffffffff166110d682610714565b73ffffffffffffffffffffffffffffffffffffffff161461112c576040517f08c379a000000000000000000000000000000000000000000000000000000000815260040161112390612432565b60405180910390fd5b600073ffffffffffffffffffffffffffffffffffffffff168273ffffffffffffffffffffffffffffffffffffffff16141561119c576040517f08c379a000000000000000000000000000000000000000000000000000000000815260040161119390612472565b60405180910390fd5b6111a7838383611687565b6111b2600082610c31565b6001600360008573ffffffffffffffffffffffffffffffffffffffff1673ffffffffffffffffffffffffffffffffffffffff16815260200190815260200160002060008282546112029190612758565b925050819055506001600360008473ffffffffffffffffffffffffffffffffffffffff1673ffffffffffffffffffffffffffffffffffffffff16815260200190815260200160002060008282546112599190612677565b92505081905550816002600083815260200190815260200160002060006101000a81548173ffffffffffffffffffffffffffffffffffffffff021916908373ffffffffffffffffffffffffffffffffffffffff160217905550808273ffffffffffffffffffffffffffffffffffffffff168473ffffffffffffffffffffffffffffffffffffffff167fddf252ad1be2c89b69c2b068fc378daa952ba7f163c4a11628f55a4df523b3ef60405160405180910390a461131883838361168c565b505050565b8173ffffffffffffffffffffffffffffffffffffffff168373ffffffffffffffffffffffffffffffffffffffff16141561138c576040517f08c379a000000000000000000000000000000000000000000000000000000000815260040161138390612492565b60405180910390fd5b80600560008573ffffffffffffffffffffffffffffffffffffffff1673ffffffffffffffffffffffffffffffffffffffff16815260200190815260200160002060008473ffffffffffffffffffffffffffffffffffffffff1673ffffffffffffffffffffffffffffffffffffffff16815260200190815260200160002060006101000a81548160ff0219169083151502179055508173ffffffffffffffffffffffffffffffffffffffff168373ffffffffffffffffffffffffffffffffffffffff167f17307eab39ab6107e8899845ad3d59bd9653f200f220920489ca2b5937696c318360405161147d91906123d5565b60405180910390a3505050565b6114958484846110b6565b6114a184848484611691565b6114e0576040517f08c379a00000000000000000000000000000000000000000000000000000000081526004016114d790612412565b60405180910390fd5b50505050565b606060405180602001604052806000815250905090565b606061150882610bde565b60006115126114e6565b90506000815111611532576040518060200160405280600081525061155d565b8061153c84610cea565b60405160200161154d92919061229f565b6040516020818303038152906040525b915050919050565b6001816000016000828254019250508190555050565b600081600001549050919050565b6115a3828260405180602001604052806000815250611828565b5050565b6115b08261161b565b6115ef576040517f08c379a00000000000000000000000000000000000000000000000000000000081526004016115e6906124d2565b60405180910390fd5b80600660008481526020019081526020016000209080519060200190611616929190611a80565b505050565b60008073ffffffffffffffffffffffffffffffffffffffff166002600084815260200190815260200160002060009054906101000a900473ffffffffffffffffffffffffffffffffffffffff1673ffffffffffffffffffffffffffffffffffffffff1614159050919050565b505050565b505050565b60006116b28473ffffffffffffffffffffffffffffffffffffffff16611883565b1561181b578373ffffffffffffffffffffffffffffffffffffffff1663150b7a026116db610c29565b8786866040518563ffffffff1660e01b81526004016116fd9493929190612389565b602060405180830381600087803b15801561171757600080fd5b505af192505050801561174857506040513d601f19601f820116820180604052508101906117459190611e2c565b60015b6117cb573d8060008114611778576040519150601f19603f3d011682016040523d82523d6000602084013e61177d565b606091505b506000815114156117c3576040517f08c379a00000000000000000000000000000000000000000000000000000000081526004016117ba90612412565b60405180910390fd5b805181602001fd5b63150b7a0260e01b7bffffffffffffffffffffffffffffffffffffffffffffffffffffffff1916817bffffffffffffffffffffffffffffffffffffffffffffffffffffffff191614915050611820565b600190505b949350505050565b61183283836118a6565b61183f6000848484611691565b61187e576040517f08c379a000000000000000000000000000000000000000000000000000000000815260040161187590612412565b60405180910390fd5b505050565b6000808273ffffffffffffffffffffffffffffffffffffffff163b119050919050565b600073ffffffffffffffffffffffffffffffffffffffff168273ffffffffffffffffffffffffffffffffffffffff161415611916576040517f08c379a000000000000000000000000000000000000000000000000000000000815260040161190d90612512565b60405180910390fd5b61191f8161161b565b1561195f576040517f08c379a000000000000000000000000000000000000000000000000000000000815260040161195690612452565b60405180910390fd5b61196b60008383611687565b6001600360008473ffffffffffffffffffffffffffffffffffffffff1673ffffffffffffffffffffffffffffffffffffffff16815260200190815260200160002060008282546119bb9190612677565b92505081905550816002600083815260200190815260200160002060006101000a81548173ffffffffffffffffffffffffffffffffffffffff021916908373ffffffffffffffffffffffffffffffffffffffff160217905550808273ffffffffffffffffffffffffffffffffffffffff16600073ffffffffffffffffffffffffffffffffffffffff167fddf252ad1be2c89b69c2b068fc378daa952ba7f163c4a11628f55a4df523b3ef60405160405180910390a4611a7c6000838361168c565b5050565b828054611a8c90612842565b90600052602060002090601f016020900481019282611aae5760008555611af5565b82601f10611ac757805160ff1916838001178555611af5565b82800160010185558215611af5579182015b82811115611af4578251825591602001919060010190611ad9565b5b509050611b029190611b06565b5090565b5b80821115611b1f576000816000905550600101611b07565b5090565b6000611b36611b31846125d2565b6125ad565b905082815260208101848484011115611b4e57600080fd5b611b59848285612800565b509392505050565b6000611b74611b6f84612603565b6125ad565b905082815260208101848484011115611b8c57600080fd5b611b97848285612800565b509392505050565b600081359050611bae81612e9c565b92915050565b600081359050611bc381612eb3565b92915050565b600081359050611bd881612eca565b92915050565b600081519050611bed81612eca565b92915050565b600082601f830112611c0457600080fd5b8135611c14848260208601611b23565b91505092915050565b600082601f830112611c2e57600080fd5b8135611c3e848260208601611b61565b91505092915050565b600081359050611c5681612ee1565b92915050565b600060208284031215611c6e57600080fd5b6000611c7c84828501611b9f565b91505092915050565b60008060408385031215611c9857600080fd5b6000611ca685828601611b9f565b9250506020611cb785828601611b9f565b9150509250929050565b600080600060608486031215611cd657600080fd5b6000611ce486828701611b9f565b9350506020611cf586828701611b9f565b9250506040611d0686828701611c47565b9150509250925092565b60008060008060808587031215611d2657600080fd5b6000611d3487828801611b9f565b9450506020611d4587828801611b9f565b9350506040611d5687828801611c47565b925050606085013567ffffffffffffffff811115611d7357600080fd5b611d7f87828801611bf3565b91505092959194509250565b60008060408385031215611d9e57600080fd5b6000611dac85828601611b9f565b9250506020611dbd85828601611bb4565b9150509250929050565b60008060408385031215611dda57600080fd5b6000611de885828601611b9f565b9250506020611df985828601611c47565b9150509250929050565b600060208284031215611e1557600080fd5b6000611e2384828501611bc9565b91505092915050565b600060208284031215611e3e57600080fd5b6000611e4c84828501611bde565b91505092915050565b600060208284031215611e6757600080fd5b600082013567ffffffffffffffff811115611e8157600080fd5b611e8d84828501611c1d565b91505092915050565b600060208284031215611ea857600080fd5b6000611eb684828501611c47565b91505092915050565b60008060408385031215611ed257600080fd5b6000611ee085828601611c47565b925050602083013567ffffffffffffffff811115611efd57600080fd5b611f0985828601611c1d565b9150509250929050565b611f1c8161278c565b82525050565b611f2b8161279e565b82525050565b6000611f3c82612634565b611f46818561264a565b9350611f5681856020860161280f565b611f5f816129db565b840191505092915050565b6000611f758261263f565b611f7f818561265b565b9350611f8f81856020860161280f565b611f98816129db565b840191505092915050565b6000611fae8261263f565b611fb8818561266c565b9350611fc881856020860161280f565b80840191505092915050565b6000611fe160378361266c565b9150611fec826129ec565b603782019050919050565b600061200460328361265b565b915061200f82612a3b565b604082019050919050565b600061202760308361266c565b915061203282612a8a565b603082019050919050565b600061204a60028361266c565b915061205582612ad9565b600282019050919050565b600061206d60258361265b565b915061207882612b02565b604082019050919050565b6000612090601c8361265b565b915061209b82612b51565b602082019050919050565b60006120b360248361265b565b91506120be82612b7a565b604082019050919050565b60006120d660198361265b565b91506120e182612bc9565b602082019050919050565b60006120f960298361265b565b915061210482612bf2565b604082019050919050565b600061211c602e8361265b565b915061212782612c41565b604082019050919050565b600061213f60028361266c565b915061214a82612c90565b600282019050919050565b6000612162603e8361265b565b915061216d82612cb9565b604082019050919050565b600061218560208361265b565b915061219082612d08565b602082019050919050565b60006121a860018361266c565b91506121b382612d31565b600182019050919050565b60006121cb60188361265b565b91506121d682612d5a565b602082019050919050565b60006121ee60218361265b565b91506121f982612d83565b604082019050919050565b6000612211601d8361266c565b915061221c82612dd2565b601d82019050919050565b6000612234600a8361266c565b915061223f82612dfb565b600a82019050919050565b6000612257602e8361265b565b915061226282612e24565b604082019050919050565b600061227a60118361266c565b915061228582612e73565b601182019050919050565b612299816127f6565b82525050565b60006122ab8285611fa3565b91506122b78284611fa3565b91508190509392505050565b60006122ce8261219b565b91506122d98261226d565b91506122e58286611fa3565b91506122f08261203d565b91506122fb8261201a565b915061230682612227565b91506123128285611fa3565b915061231d8261203d565b915061232882611fd4565b91506123348284611fa3565b915061233f82612132565b9150819050949350505050565b600061235782612204565b91506123638284611fa3565b915081905092915050565b60006020820190506123836000830184611f13565b92915050565b600060808201905061239e6000830187611f13565b6123ab6020830186611f13565b6123b86040830185612290565b81810360608301526123ca8184611f31565b905095945050505050565b60006020820190506123ea6000830184611f22565b92915050565b6000602082019050818103600083015261240a8184611f6a565b905092915050565b6000602082019050818103600083015261242b81611ff7565b9050919050565b6000602082019050818103600083015261244b81612060565b9050919050565b6000602082019050818103600083015261246b81612083565b9050919050565b6000602082019050818103600083015261248b816120a6565b9050919050565b600060208201905081810360008301526124ab816120c9565b9050919050565b600060208201905081810360008301526124cb816120ec565b9050919050565b600060208201905081810360008301526124eb8161210f565b9050919050565b6000602082019050818103600083015261250b81612155565b9050919050565b6000602082019050818103600083015261252b81612178565b9050919050565b6000602082019050818103600083015261254b816121be565b9050919050565b6000602082019050818103600083015261256b816121e1565b9050919050565b6000602082019050818103600083015261258b8161224a565b9050919050565b60006020820190506125a76000830184612290565b92915050565b60006125b76125c8565b90506125c38282612874565b919050565b6000604051905090565b600067ffffffffffffffff8211156125ed576125ec6129ac565b5b6125f6826129db565b9050602081019050919050565b600067ffffffffffffffff82111561261e5761261d6129ac565b5b612627826129db565b9050602081019050919050565b600081519050919050565b600081519050919050565b600082825260208201905092915050565b600082825260208201905092915050565b600081905092915050565b6000612682826127f6565b915061268d836127f6565b9250827fffffffffffffffffffffffffffffffffffffffffffffffffffffffffffffffff038211156126c2576126c161291f565b5b828201905092915050565b60006126d8826127f6565b91506126e3836127f6565b9250826126f3576126f261294e565b5b828204905092915050565b6000612709826127f6565b9150612714836127f6565b9250817fffffffffffffffffffffffffffffffffffffffffffffffffffffffffffffffff048311821515161561274d5761274c61291f565b5b828202905092915050565b6000612763826127f6565b915061276e836127f6565b9250828210156127815761278061291f565b5b828203905092915050565b6000612797826127d6565b9050919050565b60008115159050919050565b60007fffffffff0000000000000000000000000000000000000000000000000000000082169050919050565b600073ffffffffffffffffffffffffffffffffffffffff82169050919050565b6000819050919050565b82818337600083830152505050565b60005b8381101561282d578082015181840152602081019050612812565b8381111561283c576000848401525b50505050565b6000600282049050600182168061285a57607f821691505b6020821081141561286e5761286d61297d565b5b50919050565b61287d826129db565b810181811067ffffffffffffffff8211171561289c5761289b6129ac565b5b80604052505050565b60006128b0826127f6565b91507fffffffffffffffffffffffffffffffffffffffffffffffffffffffffffffffff8214156128e3576128e261291f565b5b600182019050919050565b60006128f9826127f6565b9150612904836127f6565b9250826129145761291361294e565b5b828206905092915050565b7f4e487b7100000000000000000000000000000000000000000000000000000000600052601160045260246000fd5b7f4e487b7100000000000000000000000000000000000000000000000000000000600052601260045260246000fd5b7f4e487b7100000000000000000000000000000000000000000000000000000000600052602260045260246000fd5b7f4e487b7100000000000000000000000000000000000000000000000000000000600052604160045260246000fd5b6000601f19601f8301169050919050565b7f22616e696d6174696f6e5f75726c223a202268747470733a2f2f657468696e6460008201527f69612d6f6e652e76657263656c2e6170702f766965772f000000000000000000602082015250565b7f4552433732313a207472616e7366657220746f206e6f6e20455243373231526560008201527f63656976657220696d706c656d656e7465720000000000000000000000000000602082015250565b7f226465736372697074696f6e223a2022596f7572204e4654206973207468652060008201527f6e6578742041642053706163652e222c00000000000000000000000000000000602082015250565b7f222c000000000000000000000000000000000000000000000000000000000000600082015250565b7f4552433732313a207472616e736665722066726f6d20696e636f72726563742060008201527f6f776e6572000000000000000000000000000000000000000000000000000000602082015250565b7f4552433732313a20746f6b656e20616c7265616479206d696e74656400000000600082015250565b7f4552433732313a207472616e7366657220746f20746865207a65726f2061646460008201527f7265737300000000000000000000000000000000000000000000000000000000602082015250565b7f4552433732313a20617070726f766520746f2063616c6c657200000000000000600082015250565b7f4552433732313a2061646472657373207a65726f206973206e6f74206120766160008201527f6c6964206f776e65720000000000000000000000000000000000000000000000602082015250565b7f45524337323155524953746f726167653a2055524920736574206f66206e6f6e60008201527f6578697374656e7420746f6b656e000000000000000000000000000000000000602082015250565b7f227d000000000000000000000000000000000000000000000000000000000000600082015250565b7f4552433732313a20617070726f76652063616c6c6572206973206e6f7420746f60008201527f6b656e206f776e6572206e6f7220617070726f76656420666f7220616c6c0000602082015250565b7f4552433732313a206d696e7420746f20746865207a65726f2061646472657373600082015250565b7f7b00000000000000000000000000000000000000000000000000000000000000600082015250565b7f4552433732313a20696e76616c696420746f6b656e2049440000000000000000600082015250565b7f4552433732313a20617070726f76616c20746f2063757272656e74206f776e6560008201527f7200000000000000000000000000000000000000000000000000000000000000602082015250565b7f646174613a6170706c69636174696f6e2f6a736f6e3b6261736536342c000000600082015250565b7f22696d616765223a202200000000000000000000000000000000000000000000600082015250565b7f4552433732313a2063616c6c6572206973206e6f7420746f6b656e206f776e6560008201527f72206e6f7220617070726f766564000000000000000000000000000000000000602082015250565b7f226e616d65223a20224144204e46542023000000000000000000000000000000600082015250565b612ea58161278c565b8114612eb057600080fd5b50565b612ebc8161279e565b8114612ec757600080fd5b50565b612ed3816127aa565b8114612ede57600080fd5b50565b612eea816127f6565b8114612ef557600080fd5b5056fe4142434445464748494a4b4c4d4e4f505152535455565758595a6162636465666768696a6b6c6d6e6f707172737475767778797a303132333435363738392b2fa26469706673582212200ee3a1d780f68a83fdb104266747df3de872dd5cc8247686f8062972ffb858fa64736f6c63430008040033",
  "linkReferences": {},
  "deployedLinkReferences": {}
}